:020000021000EC
:10C0000000800020A9C80100E5C80100E7C80100C0
:10C010000000000000000000000000000000000020
:10C02000000000000000000000000000E9C801005E
:10C030000000000000000000EBC80100EDC8010096
:10C04000EFC80100EFC80100E9010200EFC80100DC
:10C05000EFC8010000000000EFC80100EFC80100B8
:10C06000EFC80100EFC80100EFC80100EFC80100F0
:10C07000EFC80100EFC80100EFC80100EFC80100E0
:10C08000EFC8010015040200EFC80100EFC801006D
:10C09000EFC8010085240200BDFD0100EFC80100CA
:10C0A000EFC80100EFC80100000000000000000020
:10C0B0000000000000000000000000000000000080
:10C0C00010B5064C2378002B07D1054B002B02D06E
:10C0D000044800E000BF0123237010BD9028002019
:10C0E000000000004443020008B5084B002B03D0B9
:10C0F0000748084900E000BF07480368002B03D049
:10C10000064B002B00D0984708BDC0460000000039
:10C1100044430200942800209028002000000000E2
:10C12000164B002B00D1144B9D46402292029A1AC6
:10C13000924600218B460F461348144A121A06F005
:10C140002DFB0F4B002B00D098470E4B002B00D03F
:10C1500098470020002104000D000D48002802D05F
:10C160000C4800E000BF06F0A3FA2000290002F00E
:10C17000B2F906F087FAC0460000080000800020EF
:10C180000000000000000000902800209C2D0020EE
:10C19000000000000000000008B50368002B01D07B
:10C1A000081C984708BD08B50368002B01D0081C7F
:10C1B000984708BD08B50368002B01D0081C9847B4
:10C1C00008BD08B50368002B01D0081C984708BDBE
:10C1D00008B50368002B01D0081C984708BD000073
:10C1E00010B5054B041C036002F009F9201C02F095
:10C1F00057F9201C10BDC046003E020010B5041CBB
:10C20000FFF7EEFF201C06F007FA201C10BD00000F
:10C2100010B5034B041C0360FFF7E2FF201C10BDA8
:10C22000183E020010B5041CFFF7F2FF201C06F0B8
:10C23000F3F9201C10BD0000F7B50C4B0C48DF8B48
:10C240000C4B00241E7800F01BFD036800940A4D7F
:10C25000DA68391C331C94462A1CE047281C211C30
:10C26000142206F09BFA054B1C70F7BD2429002010
:10C27000B0280020AC280020DC290020B8280020AD
:10C2800070B51D1CC37F041C5E1901201D2E13DC1C
:10C290002818E054E37F0133DBB2E377E154E07F19
:10C2A000111C0130C0B2E0772A1C201806F054FAA5
:10C2B000E37F0020ED18E57770BD0000F7B58E1E16
:10C2C000F6B2051C089C132E22D80120071CB7408B
:10C2D0003E1C284F3E421BD0E97FCE1869181F2E06
:10C2E00046DC601C814203D90878C8540139F8E75C
:10C2F0000021C8B2984204D2565C601886700131A1
:10C30000F7E722789A182270EA7F9B18EB770FE004
:10C310002078061C013EF6B20090B3420AD10021FB
:10C32000C8B2984204D2555C601885700131F7E7B5
:10C3300000201DE0E87F801BC0188446674601206E
:10C340001F2F15DCE87F8446B01C2018019067463B
:10C35000E819019F874204D2A01980782070013427
:10C36000F0E70098C7436744EF77281CFFF788FF82
:10C37000FEBDC0463F000800F7B5C67F0024B442AA
:10C380000CD205196F788F4203D10095FFF796FF05
:10C3900006E0055D01356419E4B2F0E7FFF770FFD0
:10C3A000FEBD70B5061C8AB00A360C1C2222311C58
:10C3B000051C01A806F0D0F96A460121033201A844
:10C3C0000B1C1470FFF7D8FF041E0DD12B682A1C1C
:10C3D00034329B6F281C01A99847041E04D1301CDD
:10C3E00001A9222206F0B8F9201C0AB070BDF0B5F0
:10C3F000051C8DB00A35161C0F1C2222291C041C9A
:10C4000003A8019306F0A8F9321C03A8391C019B6C
:10C41000FFF7B2FF061E0DD12368221C34329B6F3A
:10C42000201C03A99847061E04D1281C03A9222218
:10C4300006F092F9301C0DB0F0BD70B50123041C5C
:10C440000370261CC018031C113600251D70013313
:10C45000B342FAD1012365822370AA4208D10B1C92
:10C4600010338B4207D0013B1A7802700130F8E795
:10C47000102206F07AF9A37B627B1B021343201C77
:10C48000638270BD10B500F0EBFB011C08C9041CF1
:10C49000DB6F9847002804D15834237801221343D6
:10C4A000237010BD10B5064C0649201C00F0CAFAD6
:10C4B0000549201C00F0C6FA0448FFF7E3FF10BD51
:10C4C000342A0020943A0200A23A0200B028002048
:10C4D000F0B596218DB05648890100F057FB02ADAA
:10C4E0005348544900F020FB07AC281C00210C22C3
:10C4F00006F054F90094231C2A1CC1CAC1C34E4B38
:10C500000027211C4D480A930B9700F051FB391C62
:10C510000C22281C06F042F9484800F0A1FB484EC6
:10C52000009B0296041C07CD07C3142006F060F898
:10C53000009A0796031C62CA62C3424B0761C3603C
:10C54000231CA4331A683D4DBA4200D00261186022
:10C55000281C00F095FB00210C22071C07A806F000
:10C560001DF9142006F044F8374B009C0793031C78
:10C5700046CC46C3354BC36000230361BB69002B27
:10C5800000D00361B861281C00F06AFB0421FFF7AA
:10C5900008FF281C00F064FB08212D4A1423FFF734
:10C5A00026FF281C00F05CFB2A4A07211023FFF716
:10C5B0001EFF281C00F054FB00230371281C00F010
:10C5C0005FFB036824491B689847281C00F048FB60
:10C5D000036822495B6B9847281C00F041FB036805
:10C5E00004215B6C9847281C00F03AFB0368041C8C
:10C5F0009B689847A023984204D92368201C9B6815
:10C600009847031CFA2080001549584306F02AFD7C
:10C61000E080281C00F024FB00230381281CFFF786
:10C6200031FF1049024800F00DFA0DB0F0BDC046D0
:10C63000342A002039C80100B5C10100B02800200B
:10C64000A5C40100D1C10100FDC70100C3C10100A3
:10C65000C53A0200F43A0200BC290020D53A020093
:10C6600071020000E13A020008B5024800F018FB30
:10C6700008BDC046B0280020F0B5002187B04D4865
:10C6800000F0AEFA4C4D0024281C01F0E3FE4B4BA9
:10C6900001AEAC61EC62281C49494A4A2B6005F0A6
:10C6A000D3FF221C301C4849FFF7C7FE474D3378A3
:10C6B00069462B70738A05316B821022444806F05C
:10C6C0004BF8444B14226B61414B2A830C22012707
:10C6D000DA77AB1CDF772B1C28331C702B1C29331B
:10C6E0001C70281C2B1C6F832F77EC832A33211C92
:10C6F0000C222C306C621C7006F050F8364B281C53
:10C70000AB63EC63211C0C22403006F047F8334A3F
:10C710002C65EA64301C221C3149FFF78EFE314D36
:10C72000337869462B70738A05316B8210222E484C
:10C7300006F012F82D4B2C4A6B6114232B83102327
:10C74000D377AB1CDF772B1C28331C702B1C2933B1
:10C750001C70281C2B1C2A336F832F77EC83211C21
:10C760000C222C301C706C6206F018F81A4A281C37
:10C77000EC63AA63211C0C22403006F00FF8174B23
:10C780002C65EB64221C301C1949FFF756FE194D2D
:10C79000337869462B70738AE8196B820531102251
:10C7A00005F0DAFF02232B75134BAC83AB6107B0A6
:10C7B000F0BDC046B02800208C290020183E0200A1
:10C7C00011C2010000280020643A0200D028002095
:10C7D000D128002078290020A7C1010099C10100BB
:10C7E000843A02002429002025290020B9280020AD
:10C7F000743A0200BC2900200428002070B50B4ABE
:10C800004388D58B86B09D420ED1094800F038FA96
:10C81000036801AC5E686B46291C221C0233B047DA
:10C820002178044800F04CF906B070BDD0280020F3
:10C83000B0280020342A002070B5002924D1134BE1
:10C840001C78002C0AD1012211481A70114BC462C5
:10C850008361114901F0DBFD104B1C70104C201C52
:10C8600000F0FCF800280FD00C4D201C2E78132E61
:10C8700007D800F001F90B4B98552B7801332B703A
:10C88000ECE700F0F9F8E9E770BDC046B8280020F1
:10C890008C29002039C20100A0860100AC280020AC
:10C8A000342A0020DC2900200848026803210A43BA
:10C8B00002600749074A084B9B1A03DD043BC8582E
:10C8C000D050FBDC05488047054800472405004060
:10C8D000504302000028002090280020F1C80100E9
:10C8E00021C10100FEE7FEE7FEE7FEE7FEE7FEE707
:10C8F000334B10B51A78181C012A12D1314B1B6822
:10C9000019070ED1304BF0221B68E024191C11408E
:10C91000234204D12D4B1B68134202D140E0302941
:10C92000F8D00378012B0DD1264A1268110709D1DE
:10C93000254A1168F0221140402903D12349096892
:10C94000114235D08023A321DB050122C9005A50B2
:10C950001F49002088609A601E4B8A68002A2DD1EA
:10C96000C822C046C046C046C046C046C046C046B3
:10C97000C046C046C046C046C046C046C046013A52
:10C98000002AEED1013B002BE7D18022A320D20563
:10C99000C0001350012393608B68002BFCD00DE086
:10C9A0000D490E4A116080210D4A09021160B8E755
:10C9B000C1228021D200C9058B50C3E710BDC046FB
:10C9C000E00F00F0E40F00F0E80F00F0EC0F00F0D3
:10C9D000FC00004088130000DFFF07C00405004092
:10C9E000186C0040F8B5061C0C1C8F180025BC42C2
:10C9F00007D0336821781B68301C984701342D1804
:10CA0000F5E7281CF8BD38B5051C0C1C081E07D01E
:10CA100005F0F8FF2B68021C5B68281C211C984756
:10CA200038BD08B503681B68984708BD38B50D21A7
:10CA3000041CFFF7F6FF0A21051C201CFFF7F1FF7D
:10CA4000401938BD38B5041CFFF7DDFF051C201C5C
:10CA5000FFF7ECFF281838BD01207047054B1A1C62
:10CA60004032107841331B784030C01A3F231840C1
:10CA70007047C046F0290020084A111C101C4131A3
:10CA800040300B780078984205D0D05C01333F22CB
:10CA900013400B7001E0012040427047F029002054
:10CAA000064B1A1C191C4132403112780978914208
:10CAB00001D0985C01E0012040427047F02900203D
:10CAC00007B5034B6846009303F00EFC0EBDC0464D
:10CAD0000020004007B5044B0093684603F012FCA9
:10CAE0000028FAD007BDC0460020004030B5074BF3
:10CAF0003F211A1C40321478651C29401D1C413509
:10CB00002D788D4201D01855117030BDF0290020CC
:10CB100000234360FA239B008360024B08330360C9
:10CB20007047C046083B020007B5054B0093002341
:10CB30000193994203D06846012203F083FB07BDAD
:10CB40000020004073B5101C1E1C0C1C03F072FD6D
:10CB5000051C301C03F06EFD0B4B2A1C011C6846A3
:10CB6000009303F0CBFA01235B421A1C68460021B4
:10CB700003F0D0FB6846211C03F09CFA68460021B4
:10CB8000012203F06BFB73BD0020004008B50022BA
:10CB90000123FFF7D7FF08BD08B5034803F054FD94
:10CBA0000248FFF7B5FF08BDF0290020342A002015
:10CBB000F0B5021C406812680B1C016889B00C6853
:10CBC000019203AA151C1E1CA44692CE92C5DB68D6
:10CBD0000199D36000231361E04709B0F0BD000064
:10CBE00038B50023041C0160436099420AD1064D08
:10CBF0002B68002B02D100F02DFD286022689300E5
:10CC0000ED586560201C38BD502A0020F8B500287A
:10CC10000DD1104C2668002E07D1082005F0E8FC45
:10CC2000311C051CFFF7DCFF2560206810E00A4D71
:10CC300001272E68094C3E4009D1281C05F0F2FC62
:10CC4000002804D0281C2760666005F0FAFC201C30
:10CC5000F8BDC046442A0020542A0020482A00205B
:10CC6000436810B5041C002B02D1044803F009F9F5
:10CC7000606803681B69984710BDC046303B0200DE
:10CC8000436810B5041C002B02D1044803F0F9F8E6
:10CC9000606803689B69984710BDC046303B02003E
:10CCA000436810B5041C002B02D1044803F0E9F8D6
:10CCB00060680368DB6A984710BDC046303B0200DD
:10CCC0007047022070470220704700207047002004
:10CCD0007047000000487047FFFF000002207047C7
:10CCE00002207047022070470220704702207047E0
:10CCF00002207047022070470220704702207047D0
:10CD000002207047022070470220704702207047BF
:10CD100000231360704700207047022070470220F4
:10CD200070470220704702207047022070470020A1
:10CD30007047002070470020704702207047022093
:10CD400070474160704781607047C1607047016102
:10CD500070474161704702207047022070470220EF
:10CD6000704702207047022070470220704702205F
:10CD700070470020704702207047002070477047BE
:10CD800090DF704766DF704748DF70475F3000789C
:10CD9000431E9841C0B27047007970470C3070470D
:10CDA0000C30704708B5FFF7EFFF08BD08B5036802
:10CDB000002B01D0081C984708BD08B50368002B5C
:10CDC00001D0081C984708BD08B50368002B01D0A6
:10CDD000081C984708BD08B50368002B01D0081C43
:10CDE000984708BD08B50368002B01D0081C984778
:10CDF00008BD08B5081C111C1A1C029B01F0F8F9AB
:10CE000008BD08B5081C111C01F06CFA08BD08B576
:10CE1000081C111C01F08CFA08BD08B501F04EFA8F
:10CE200008BDF0B595B008230C1C69460B7104AA27
:10CE30000B7368460CAB0293009201F09FFA00233B
:10CE4000061C051E2CD169460B79AB4211D96379BA
:10CE5000AB4201D8257124E00722101C68432368E7
:10CE6000009F1818AB00D959013505F075FCEDB2DB
:10CE7000E9E7257100256B461A7B2379EB18AA4256
:10CE80000ED9627993420BDA0721029F4B43AA0025
:10CE9000D05922680135D11801F08CFAEDB2EAE7D9
:10CEA0002371301C15B0F0BD7FB50379002B0FD076
:10CEB000164E174C3378201C002B25D102AD281CB0
:10CEC000FFF760FF002819D16B88592B16D101E0BC
:10CED000104819E02B78AA88D91F012904D800929C
:10CEE000201C20210C4A03E000920C4A201C202127
:10CEF00005F056FD01233370201C05E0201C084975
:10CF0000202205F086FDF7E704B070BD582A002006
:10CF10009C2B0020403D02005A3D0200773D02005C
:10CF20009C3D020038B50379041C0920002B28D051
:10CF300002F024FF031C0520002B22D1251CFC3508
:10CF4000A86B002803D1286C002806D10AE00368EA
:10CF50001B6A98470028F6D013E003689B6A98473D
:10CF600000280ED1E86B002804D00368DB6A9847DC
:10CF7000002806D1201C0C3003F0A0FF002800D1AF
:10CF8000207138BDF7B50093036801915B68041CFC
:10CF9000171C9847051C0620002D3BD11C203A1C6D
:10CFA00000194ACA4AC0FF68009A231CA762E562BA
:10CFB000443383CA83C3009B0899DB68142223652A
:10CFC0006565A01D05F0C8FB201C099914223030AE
:10CFD00005F0C2FB019E231C5D33A680013B5D7002
:10CFE0000121301C1D70D9702A1CFFF7C9FE061CD8
:10CFF000281C002E0ED02368201C9B689847112EF9
:10D0000007D0054B9E4202D00620072E02D10420F5
:10D0100000E00520FEBDC0460230000038B5041C0B
:10D02000E3692362206A002807D0C368211C98475F
:10D03000236A002BF4D01B69F3E7E069002804D0D1
:10D04000056905F0E9FA281CF8E7E0616060A06076
:10D05000E0602061606138BD08B5FFF7DFFF0028A0
:10D0600000D0062008BD38B5041C0068002804D094
:10D07000056905F0D1FA281CF8E7206038BD0000EA
:10D0800010B5034A041C04C0FFF7EDFF201C10BDBF
:10D09000503C020010B5041CFFF7F2FF201C05F005
:10D0A000BBFA201C10BD38B5041C0068002804D051
:10D0B000056905F0B1FA281CF8E7206038BD0000CA
:10D0C00010B5034A041C04C0FFF7EDFF201C10BD7F
:10D0D000603C020010B5041CFFF7F2FF201C05F0B5
:10D0E0009BFA201C10BD000038B5074B041C0360E0
:10D0F0004068002804D0056905F08EFA281CF8E77E
:10D100006060201C38BDC046703C020010B5041C95
:10D11000FFF7EAFF201C05F07FFA201C10BD00007D
:10D1200038B5074B041C03604068002804D005692B
:10D1300005F072FA281CF8E76060201C38BDC04674
:10D14000403C020010B5041CFFF7EAFF201C05F06C
:10D1500063FA201C10BD000038B5074B041C0360A7
:10D160004068002804D0056905F056FA281CF8E745
:10D170006060201C38BDC046E03C020010B5041CB5
:10D18000FFF7EAFF201C05F047FA201C10BD000045
:10D1900038B5074B041C03604068002804D00569BB
:10D1A00005F03AFA281CF8E76060201C38BDC0463C
:10D1B000D03C020010B5041CFFF7EAFF201C05F06C
:10D1C0002BFA201C10BD000038B5074B041C03606F
:10D1D0004068002804D0056905F01EFA281CF8E70D
:10D1E0006060201C38BDC046903B020010B5041C96
:10D1F000FFF7EAFF201C05F00FFA201C10BD00000D
:10D2000038B5074B041C03604068002804D005694A
:10D2100005F002FA281CF8E76060201C38BDC04603
:10D22000603B020010B5041CFFF7EAFF201C05F06C
:10D23000F3F9201C10BD000038B5074B041C036037
:10D240004068002804D0056905F0E6F9281CF8E7D5
:10D250006060201C38BDC046703B020010B5041C45
:10D26000FFF7EAFF201C05F0D7F9201C10BD0000D5
:10D2700038B5074B041C03604068002804D00569DA
:10D2800005F0CAF9281CF8E76060201C38BDC046CC
:10D29000803B020010B5041CFFF7EAFF201C05F0DC
:10D2A000BBF9201C10BD000038B5074B041C0360FF
:10D2B0004068002804D0056905F0AEF9281CF8E79D
:10D2C0006060201C38BDC046303C020010B5041C14
:10D2D000FFF7EAFF201C05F09FF9201C10BD00009D
:10D2E0000F4B10B5083303600E4B041CC3600130B4
:10D2F000FF30FEF78DFF0C4B201CE360B830FFF7CA
:10D3000063FF201CAC30FFF7B3FF201CA030FFF7F9
:10D3100093FF201C6C30FFF773FF201C10BDC0462C
:10D32000A83D020078410200A03B020010B5041C99
:10D33000FFF7D6FF201C05F06FF9201C10BD000080
:10D3400038B5051CFC352C6C002C0DD1242005F0C3
:10D350004FF9064B44608361054B8460C4600461EF
:10D360004461C46103602864286C38BD303C02000D
:10D37000103D020038B5051CFC352C6C002C0DD17D
:10D38000242005F035F9064B44608361054B846029
:10D39000C46004614461C46103602864286C38BDC2
:10D3A000303C0200103D0200F7B50379071C0E1C4B
:10D3B000151C002B06D00023019300930A246B4612
:10D3C0001C7109E000F0B0FC041C0C20002C0CD1F6
:10D3D00001233B7100940194301CFFF717FCEB68AC
:10D3E00000906946281C9847201CFEBD10B50021FE
:10D3F0001F22041C05F0D2F90023E37710BD0000C2
:10D40000F0B5051CAC35041C686887B0A860A86836
:10D4100000280BD0C368211C9847AB68002B02D1B1
:10D420006968A960F3E71B69AB60F0E7251CB035BC
:10D430002868002804D0066905F0EEF8301CF8E7EB
:10D44000231C58331978FC220A402860023B9A704A
:10D4500098711870201C0A30FFF7C8FF201C343068
:10D46000FFF7C4FF606E002804D0056905F0D4F80A
:10D47000281CF8E7251C606698352868002804D029
:10D48000066905F0C9F8301CF8E7261C2860A436A8
:10D490003568002D05D02F69281C05F0BDF83D1C0E
:10D4A000F7E7356001AE291C301C0C2205F076F937
:10D4B000231C321C6C3383CA83C3094BE567A36703
:10D4C0000C22301C291C05F069F9231C803385CE01
:10D4D00085C3044A9034281C1A60256007B0F0BD4B
:10D4E000BBCD0100ADCD010010B50023021C0370BF
:10D4F0001132431C00241C7001339342FAD1418243
:10D5000010BD0000F0B589B0002603AC051C868074
:10D51000311C201CFFF7E8FF211CA81D142205F078
:10D520001BF92F1C311C0C22201C05F037F91C376D
:10D53000201C0EC80EC70F4B311C0190AB62EE626F
:10D54000201CFFF7D1FF2B1C221C303383CA83C35E
:10D55000019A311C81CA81C30C22201C05F01EF9DE
:10D560002B1C443386CC86C3034B301C2B656E6565
:10D5700009B0F0BDD7CD0100E5CD0100F0B597B001
:10D580000593036807AC1B6804910393111C231CCB
:10D59000061CA1C9A1C3D26800250A92291C0C222D
:10D5A0000CA811AF0B9505F0F9F8094B291C381C94
:10D5B00010950F93FFF798FF059D01970095301C7C
:10D5C0000499221C0CAB039FB84717B0F0BDC046AE
:10D5D000E5CD010038B50025041C291C20C0FFF74B
:10D5E00083FF25766583A583E5832584201C38BDCC
:10D5F00010B58AB0041C0021242201A805F0CEF841
:10D6000001A8FFF7E7FFCA235B002222E01801A967
:10D6100005F0A2F82368201C5B689847231C5F3341
:10D6200000221A7090420DD0C0235B00E358934251
:10D6300008D0054B934205D0C0235B00E018A188B9
:10D64000C36898470AB010BDC1CC010008B5FFF708
:10D65000CFFF08BD004870475C2A00200048704793
:10D660005C2A0020F0B5434B434A0833061C036094
:10D67000C2600023A0221636011C428285B0041C21
:10D680000371836003748382321C3531002313706D
:10D6900001328A42FAD180258021C901AD00201CC7
:10D6A000F3770A1C35843830009302F0DBFF221C2C
:10D6B0004032211C0392131C5F312A1C00251D706F
:10D6C00001338B42FAD1039B201CDD77231C60338E
:10D6D00019791A80FC220A409D701A711D72274B1D
:10D6E000291CE36625670C22783005F057F8231CC7
:10D6F00088331D60271C224B0837FB678437291CA1
:10D70000381C0C2205F04AF81E4B1F4AFB60231CF4
:10D71000A0333D611A601D4A5D60DA601C4A1D61DC
:10D720009A61DD61301CFFF761FE0398FFF75EFE32
:10D73000184B601CE360231CC4331D705D709D702A
:10D74000FF3000F087FE8C235B00E5508C235B00EC
:10D75000E3185D61104A80235B00E250231C012224
:10D76000FE3352425A86201C023B9D63DD631D64DA
:10D7700005B0F0BDA83D0200A03B0200603B0200E6
:10D78000BBCD0100ADCD0100703B0200803B02002B
:10D79000903B020078410200183E020038B50C228E
:10D7A0000D1C0021041C04F0F9FF00232361024B2F
:10D7B0002560201CE36038BDC9CD0100314B70B538
:10D7C0000025041C0E1C036085710583291C0C2296
:10D7D0001C3004F0E3FF2C4BE562A362231C3033C2
:10D7E0001D70201C231DDD87291C44300C2204F0F1
:10D7F000D5FF264B65652365254BA6652360231C55
:10D800005C331D705D709D70DD70261C251C6035BD
:10D81000C036281C0021FFF767FE0023AB82EB8295
:10D820001835B542F5D1A8225200A618281C0021AF
:10D83000242204F0B3FF281C2435FFF7CBFEB542A9
:10D84000F4D1A82300215B00E150B422231CFC3357
:10D8500052009965D965196659666C61A1501967BE
:10D8600059679967D967A3185C61C0235B00E0180A
:10D87000FFF794FFCA225200A018FFF7ABFE201C4E
:10D8800070BDC046B03C0200D7CD0100E5CD01001F
:10D89000F03C020070B5061CFC36F56B002D1CD167
:10D8A000B420800004F0A4FE0D4B041C43600D4B1B
:10D8B000856003610C4B4561C3610C4B056283625B
:10D8C0000B4BC5620360211C3430FFF777FFF62352
:10D8D0005B00E01802F0A2FFF463F06B70BDC0467D
:10D8E000603C0200503C0200D03C0200E03C0200E0
:10D8F00008420200264B70B50360264B002583606A
:10D90000254B041C4361254B05710362244B457173
:10D91000C362C560856145620563291C3830FFF725
:10D920003DFF201C291C4C30FFF738FF201C291C10
:10D930006030FFF733FF1B4B251C2360231C74351D
:10D94000C433002204C59D42FBD1B22149006618B0
:10D95000281C00210822083504F020FFB542F7D129
:10D96000C2235B00E218002308C59542FBD1C22206
:10D97000C32152004900A3546318CB214900621807
:10D980000021198002339342FAD1201C70BDC04699
:10D99000803C0200403C0200503C0200603C02001F
:10D9A000703C02004842020038B5041CFC34A36BF2
:10D9B000002B07D1CC20400004F01AFE051CFFF715
:10D9C00099FFA563A06B38BD38B5041CFC34A36B6C
:10D9D000002B07D1CC20400004F00AFE051CFFF705
:10D9E00089FFA563A06B38BD70B5031C0A1C70CA03
:10D9F00070C3C9680023C160036170BD08B5813080
:10DA0000FF30FFF7F1FF08BD30B587B0051CFFF709
:10DA100079FD041E24D12B1C5C331870587098704B
:10DA2000D870A8235B00E850EA1801235B425360DA
:10DA30009360D3601361B4225200A850B422520004
:10DA4000AA18211C53609360D360136101A8FFF7EB
:10DA5000A5FEC0214900681801A9FFF7C5FF00E035
:10DA60000624201C07B030BD70B5041C86B0236BA3
:10DA70006363606B002807D0C368211C9847636B01
:10DA8000002BF4D01B69F3E7206B002804D0056954
:10DA900004F0C2FD281CF8E7E5682063207160717E
:10DAA000002D05D02E69281C04F0B6FD351CF7E7C3
:10DAB000201CE5601830FFF7D6FA201C2430FFF751
:10DAC000F2FA291C01A8FFF769FE201C01A93830D1
:10DAD000FFF78AFF291C01A8FFF760FE201C01A99F
:10DAE0004C30FFF781FF291C01A8FFF757FE201CCF
:10DAF00001A96030FFF778FF281C06B070BD000058
:10DB000010B5054C201CFFF7ADFD201C0349044A4D
:10DB100004F09AFD10BDC0465C2A0020E1D201004D
:10DB20000028002070DF704771DF704760DF7047AA
:10DB300008B501F08DFE08BD08B502F0A5F800207B
:10DB400008BD0000F0B5041C8BB001F09BF8201C50
:10DB500000F002FA0020FFF781FD0368061C1B6934
:10DB600098473368051C9B69301C984733680190BF
:10DB70005B6A301C9847031C208810380B2800D99A
:10DB8000C8E005F065FA0643C7C7C782C7C7C7899B
:10DB9000C7A7A688281C311C277D03F0A2F9607B4B
:10DBA0002B1C583300901878012290430222104316
:10DBB000A179023B987018780622013018700098FD
:10DBC0006B46D97498761E829F74231C1633E11D10
:10DBD00005A8099304F0C0FD6846211C0E31943558
:10DBE0001B30062204F0B8FD6968A960A868002807
:10DBF00000D18FE0C36804A99847AB68002B02D11D
:10DC00006A68AA60F2E71B69AB60EFE74449281C29
:10DC1000A78803F066F9A379301C009333681B6A68
:10DC20009847F6214900061C06224018391C02F0CC
:10DC3000F1FE338FBB4204D1736B301C34309B68D0
:10DC400098472A1C56321378013BDBB21370002B25
:10DC500005D12B1C58331A7802218A431A70A0353B
:10DC6000009B68686A4617829374A860A8680028B9
:10DC700050D0C36804A99847AB68002B02D16968EB
:10DC8000A960F3E71B69AB60F0E75B69A088A11DA1
:10DC9000002B3FD098473DE0A679002E05D12B1CE4
:10DCA00058331A7801218A431A706B6E002B31D0D9
:10DCB0001C4A002A2ED0AB66A86E00282AD0C36862
:10DCC000311C9847AB6E002B02D16A6EAA66F3E74F
:10DCD0001B69F0E7A37B68465A07910FDA08677B58
:10DCE00001700272E11D04A80622DE0704F034FD73
:10DCF0006B461878197AF60F187659769F75DE7587
:10DD0000231C0F3307932B1C8C33281C80301B687B
:10DD100004A998470198211C03F0F2FD0BB0F0BD57
:10DD2000FFFF0000C1CC01001FB5A3238022DB0050
:10DD3000D205D3580D20DA0700D508201C49482207
:10DD40001C4B01F0F7FF00280BD080B2002808D14F
:10DD5000BFF34F8F184A194BDA60BFF34F8FC0469D
:10DD6000FDE7002302A80293436001230370FFF73D
:10DD7000DDFE002801D0072017E06846FFF7D4FE3B
:10DD80000028F8D16946FFF7CDFE0028F3D10C48F2
:10DD900002F000F880B2002807D10A4802F004F827
:10DDA00080B2002801D100F099F905B000BDC0464D
:10DDB000BC2B002039DB01000400FA0500ED00E077
:10DDC00045DB010031DB01007047000080B2002814
:10DDD00008D1BFF34F8F044A044BDA60BFF34F8F73
:10DDE000C046FDE77047C0460400FA0500ED00E0BC
:10DDF00010B50278002A09D10C78131C002C13D11D
:10DE0000428A4B8AD31A5A4253410CE00023012A1A
:10DE10000AD10A78012A07D101300131102204F019
:10DE20008CFC43424341DBB2181C10BDF0B50E1C04
:10DE3000011C5F3191B001910B78071C051C5C3708
:10DE4000022B7BD107AC24220021201C04F0A6FC6D
:10DE500008A80021FFF748FB002323766383A383F0
:10DE6000E3832384CA235B00EB58079A934217D1BC
:10DE7000CC235B00E81808A9FFF7BAFF00280FD0F1
:10DE8000CA2149006B181A7E510609D15A8B002A03
:10DE900006D1DA69E1698A4202D11B8C002B4AD093
:10DEA000002E32D13B78182253436033EB18DA8AC4
:10DEB000D9235B00EA522A1C3032311C02A800929E
:10DEC000FFF712FB009802A9FFF792FF002814D178
:10DED000CC235B000098E918FFF78AFF002814D0D4
:10DEE000311C201CFFF700FBA81D211CFFF780FF41
:10DEF00001235840C0B2002807D0696C281C443068
:10DF0000002902D0134B002B1DD124220021201CFC
:10DF100004F044FC002108A8FFF7E6FACA225200E8
:10DF20000023A818211C222223766383A383E38382
:10DF3000238404F011FC019901230B703B78013319
:10DF40003B7011B0F0BDCA225200A9182B6D984742
:10DF5000DBE7C046C1CC01007FB5051C0020FFF700
:10DF60007DFB0368041C1B6998472368201C1B6AFF
:10DF70009847061C041C288834363038082800D9F5
:10DF80009AE005F065F805991384212D99486500FC
:10DF9000EB88002B05D1291C0C31301C03F044FE0A
:10DFA0008AE0636B301C9B68984785E0EB88002B08
:10DFB00005D1291C0C31301C03F0B8FE7CE0301C6C
:10DFC0000021FFF733FF77E0636B301C5B689847F5
:10DFD000002871D0291C0C31301C03F005FF6BE0C8
:10DFE000AB886A461380AB895380EB8993802B8A78
:10DFF00012350295D380A368E360E06800285BD007
:10E00000C36869469847E368002B02D1A268E260C2
:10E01000F3E71B69F0E7AB886A461380AB8953804E
:10E02000AB7B13712B8AD3806B8A143503951381D4
:10E030006369A361A06900283ED0C3686946984718
:10E04000A369002B02D16269A261F3E71B69F0E7C3
:10E05000AB886A461380AB895380AB7B13712B8AE4
:10E0600012350295D380236A002B25D0164A002A48
:10E0700022D06362606A00281ED0C3686946984750
:10E08000636A002B01D1236AF3E71B69F1E7F622EB
:10E09000EB885200A018A988002B05D085225200D9
:10E0A000934206D1002205E02A1C0C3202F0C5FC86
:10E0B00002E00B2202F0AEFC301C03F0ADFF301C7E
:10E0C00003F028FF7FBDC046C1CC010077DF704759
:10E0D00078DF70477ADF70477CDF70471FB5002319
:10E0E00002AC039328232380C8235B006380E38072
:10E0F00001A811230C4905220370FFF7EDFF80B240
:10E1000000280FD180208000FFF7E2FF80B20028B6
:10E1100008D1201CFFF7DEFF80B2002802D1FFF7F4
:10E12000D5FF80B204B010BDE83D02007EDF70472D
:10E1300068DF704738B500200C1CFFF78FFA0368C2
:10E140005B6A98472378051C142B17D002D8132B31
:10E1500005D042E0152B16D0222B38D03DE0636865
:10E160006C6818889B78D9079A07C90FDB06C9B273
:10E17000D20F5B0F002C30D0A0472EE063681888C8
:10E180009978AB681FE0626891780B090907090F5D
:10E19000012902D0022908D010E0013BDBB20021A6
:10E1A000022B0ED80E49C95C0BE0012B08D0023BB4
:10E1B0005842434105215B42194002E0002100E042
:10E1C00004211088EB68002B07D0984705E06368AE
:10E1D00018882B69002B00D09847002038BDC04616
:10E1E000EE3D0200014B18787047C046052C002018
:10E1F000F0B51C1C2D4B87B001921A78071C00202B
:10E200000D1C824250D101F055FB002846D1002C54
:10E210000FD0222003A90394FFF78AFF002808D01B
:10E22000082804D011384342584104303CE006200D
:10E230003AE000236846037202A800F099FB011E31
:10E240002CD11B4E012433782540A3436A0027407C
:10E250001D1C3D43019B02270720BD43034015437E
:10E260001C22BB4095431D43357003AD0C22281C76
:10E2700004F094FA0F4B6846311C052211300393C9
:10E280002F7104F069FA0C48291C00F0E3FB031E0F
:10E2900006D0042807D00620082B05D00B2003E069
:10E2A000024A147000E0072007B0F0BD052C0020E2
:10E2B0000C28002035E10100042C002008B5084896
:10E2C00000F090FC0023984207D0042804D00623D5
:10E2D000082802D00B2300E00723181C08BDC04605
:10E2E000042C002073B500230193104B01AD1B7863
:10E2F0000E1C291C2B7000F089FE041E04D00B2379
:10E30000052810D104230EE0281C311C00F0DCFB92
:10E31000231C002807D0042804D00623082802D094
:10E320000B2300E00723181C76BDC046042C0020F8
:10E3300073B5114C0D1C061C211C6846052204F007
:10E340000BFA012D06D0022D13D12378012213439D
:10E35000AB4303E023780222AB439343301C69466E
:10E360002370FFF7E3FE421E90410B23404203401F
:10E3700000E00223181C76BD0C28002008B5094BCC
:10E38000011C1A780923002A09D0074800F0D4FBA1
:10E390000023984203D006230E2800D10323181C23
:10E3A00008BDC046052C0020042C002008B500F054
:10E3B0007CFE08BD08B502230B708E230B714F2322
:10E3C0004B710A1C7C238B710132043100F044FE36
:10E3D00008BD4368426910B5D118041C00F050F81C
:10E3E000E36A002B04D1A369002B07D0984705E00E
:10E3F000A069002802D0211C1C31984710BD10B51F
:10E40000041C00F045F80023A361E36210BD38B599
:10E410000D1C041C00F03CF86561206901F0CDFD85
:10E420004119201C00F02CF838BD08B5C36A011C46
:10E43000002B04D18369002B06D0984704E0806943
:10E44000002801D01C31984708BD08B503689B68B7
:10E45000984708BD084B10B508330360002343609C
:10E460008360C360041C01F0ADFD0449206101F02C
:10E470003FFD201C10BDC046283E02004BE40100B9
:10E4800008B50A1C031C011D006901F05DFD08BDF3
:10E4900008B5011C0431006901F072FD08BD0000DF
:10E4A00010B5044B041C08330360FFF7F1FF201C78
:10E4B00010BDC046283E020010B5041CFFF7F0FF57
:10E4C000201C04F0A9F8201C10BD08B5012004F0A0
:10E4D000D9F87047704708B5FFF7FCFFFFF7F9FF61
:10E4E00002F0A2F808BD0000084B1B681818EFF3F3
:10E4F0000882904205D3064B0C2201201A6040424C
:10E5000002E0024A1060181C7047C0461428002020
:10E51000982D002008B5002800D1FEE701F078FC16
:10E52000FBE77FDF704782DF7047A7DF7047A9DF17
:10E530007047AADF70470020704700207047002016
:10E54000704700207047002070470020704700206F
:10E5500070470000F0B58BB06C460E23E382039049
:10E5600001914B780C225343244A1634D31818894E
:10E5700006A9221C0323FFF7DCFF00283BD1019BE7
:10E5800018275B781E4D5F4300933B1C2688083399
:10E59000EB18181C06A9321C029304F0CEF82C1CB0
:10E5A00000280DD1009A0C235343144AD318997AAA
:10E5B000022319401FD1E819182204F0EFF81AE0DD
:10E5C000ED196B68002B01D00E4F00E00E4F009B41
:10E5D00018256B430322E250E3185E6006A9321C43
:10E5E000029804F0B9F8019B039859782A1C6943F2
:10E5F00038236118B84700200BB0F0BD0A2C00206A
:10E600006C2C0020C9FA010049FA010008B5FFF797
:10E61000A1FF08BDF7B5041C0F1C6A46817822488B
:10E6200001F0EAF900283DD162780C214A431F4BE2
:10E630009A18927A530605D4022F03D0012F03D1E2
:10E640001B4D02E01B4D00E01B4DA1781C267143C1
:10E650001A4B68465918321C0023A847002813D1CA
:10E66000022F1FD063780C225343104A4021D31845
:10E670009A7A68468A439A726178114B7143321CC8
:10E680005918331CA84701E0022F0BD023780C2225
:10E6900053430C4A6846D3189A7A0B4B9200D358CE
:10E6A000211C9847F7BDC046942C00200A2C00205E
:10E6B00049FA0100C9FA010037E50100182C0020D1
:10E6C000502C0020842C0020503E0200F7B5019011
:10E6D000437818215943264A264F50184468002C85
:10E6E0000FD00C2058433818807A45B2002D07DA35
:10E6F000450605D40E1C0836A5B296198C5802E0C2
:10E700000024251C261C0C225343FB181889311C9D
:10E710002A1C231CFFF70BFF0B280BD1019A311C7D
:10E7200053780C225343FB1818892A1C0123FFF746
:10E73000FEFE0124002800D00F48012C17D1019DB6
:10E740000C216B780D4A4B43FB181889FFF7EDFE3F
:10E7500000280CD00A4B984208D0082806D0094B54
:10E76000984203D0112801D0002000E00248FEBDED
:10E770006C2C00200A2C002041800000FFFF0000CC
:10E78000023000000430000008B5FFF79FFF08BD0D
:10E7900070B5031C487818246043094D0E1C2818D6
:10E7A000191C221C382301F0CFF9002806D17378F8
:10E7B0005C432D196B68013300D1686070BDC046A1
:10E7C0006C2C002008B5FFF7E3FF08BDF0B51D1C59
:10E7D000434B161C1A6893B001900F1C002A7CD082
:10E7E0001898542879D803ABFF22002469465A7040
:10E7F0009A70DA701C700C760B950A90A1B23948A9
:10E8000004AA01F0F9F8002809D1019804A9082206
:10E8100003F093FF002802D103AB9C7002E00134A7
:10E82000022CEBD103ACA278FF2A56D0032F0AD1D9
:10E83000189A06AB542A01D1202200E040221A7017
:10E840001A7803213BE0284BEB1A372B11D8274BC2
:10E85000002E04D101211868914008423DD00121C9
:10E8600091400A1C196891431960202206AB1A7066
:10E8700020E01F4BEB1A1B2B09D806AB20221A7085
:10E88000002363700CAB0B9318230A9312E0194812
:10E890002D1A172D21D830236A4613760023637072
:10E8A0000123E370144B997A0223194002D11822F4
:10E8B00003F074FF06AB022F0CD11A7801210A4332
:10E8C00007481A7009AB079306A90368321C201C7D
:10E8D000984702E01A780221F1E713B0F0BDC04674
:10E8E000842C0020942C0020182C0020902C002038
:10E8F000502C00206C2C00200A2C002070B51C2409
:10E9000044430E4E051C30190021341906221130E3
:10E9100003F044FF201C0021102203F03FFFFF23DF
:10E920002374A37601235B4223830122044BAA4074
:10E93000151C1A68AA431A6070BDC046182C002026
:10E94000902C002037B581B2051C6A46074801F0BB
:10E9500053F8041E08D16846542101F03FF9041E03
:10E9600002D1281CFFF7CAFF201C3EBD942C0020BA
:10E97000F0B5061C85B0002857D02D4B2D48012539
:10E9800000246F421C605C729C72211C0781C7725C
:10E990000722857203F002FF211C1822264803F08B
:10E9A000FDFE201CFFF7AAFF244CFF23281C237028
:10E9B000FFF7A4FF6A46542367709380204C02231C
:10E9C000D380204B6846211C009300F0B5FF271C24
:10E9D00000282BD11C4A33781570151C002B1BD135
:10E9E0001C1CA1B2381C02AA01F006F8061E0CD1AC
:10E9F0001C22131C6343154802A9C018331C01F0E4
:10EA0000A3F8002804D02E7010E000232B700DE036
:10EA10000134022C0AD0E4E76B46D9889B88201C7D
:10EA2000594389B201F0DAF800E0094805B0F0BDB9
:10EA3000842C00200A2C00206C2C0020062C0020A6
:10EA4000942C0020CDE70100082C0020182C002079
:10EA50000E800000F8B5174B071C1B780D1C002B0F
:10EA600022D0002822D0002920D00B68002B1DD0F6
:10EA7000114C2668002E1BD1201C08C00531052230
:10EA800003F06AFE207A2B79012188430222A372C7
:10EA90001043042398432072E07901430A439A43C8
:10EAA000E271301C3E7004E0044802E0044800E0DB
:10EAB0000448F8BD082C0020842C002008800000A9
:10EAC0000E80000004800000154B1B78002B22D024
:10EAD00000281ED000291CD00378002B1BD1114B1D
:10EAE0001B68002B17D04278002A16D10E4B9B7A58
:10EAF000012B12D02420184003D001230B70101CCE
:10EB00000CE05BB2002B02DA02230B7006E0087007
:10EB100004E0064802E0064800E006487047C046A8
:10EB2000082C0020842C00200A2C00200E800000DD
:10EB30000880000010800000234BF0B51B78002BEC
:10EB400025D0002821D000291FD00B68002B1CD015
:10EB50008D68002D19D00378002B18D11B4A12683C
:10EB6000002A14D01A481A1C10301C1C194DEE7AB9
:10EB7000B3420ED1AD7AAE070BD501331C30022B58
:10EB8000F4D10C710A7300201CE013481AE01348FA
:10EB900018E00D7BAA420AD2857AEE0707D4061C3C
:10EBA0008F689500103EEE510D4DAB5401320D793A
:10EBB000AC42E2D2857AAE07DFD40F68A500E851F7
:10EBC0000134DAE7F0BDC046082C0020842C002078
:10EBD000182C00200A2C00200E8000000880000065
:10EBE000062C0020104B10B51B78002B19D00028E4
:10EBF00015D00078002814D10C4B1B68002B10D0C6
:10EC00000B4B9A7E1C1CFF2A01D0FFF79BFE36346B
:10EC10002378FF2B06D00120FFF794FE02E0054881
:10EC200000E0054810BDC046082C0020842C0020C0
:10EC3000182C00200E8000000880000013B5041C72
:10EC400081786A460B4800F0D7FE002810D1607822
:10EC50001C235843084A694610181A1C00F074FF18
:10EC6000064B68469A7A064B9200D358211C984767
:10EC700013BDC046942C0020502C0020842C002072
:10EC8000603E0200F0B5C64A8FB01278FF23061C22
:10EC90000393002A00D1B4E1C24A1168002900D1CF
:10ECA000AFE104AD05AF6B70AB70EB70031D7B6023
:10ECB0002A233B81038800222A70BB4C102B22D0D0
:10ECC000A17A82880191890707D5B8498A4200D183
:10ECD00049E12189914200D145E1172B00D1ACE0F7
:10ECE00007D8132B53D0142B2DD0112B00D088E133
:10ECF0000FE01C2B00D11CE1522B00D111E1182B8D
:10ED000000D07EE1E5E0A37A01210B4200D02FE1A3
:10ED100077E101990223019A9943A172120707D55D
:10ED20004BB2002B0BDA281C0021FFF773FC06E026
:10ED3000A878FF2803D0FFF7E1FDFF23AB70102375
:10ED4000A3721223F6E0E37A994FFF2B14D1F389D3
:10ED50003A8B9A4204D0BA8E9A420DD1012300E038
:10ED600000230199082203930A43DBB2E372A272E3
:10ED7000281CAB70FFF762FFE37A0021FF2B00D065
:10ED80008C49B0883A1C0023FFF7CDFB39E1019A8A
:10ED90003B7004231343A372E37AFF2B25D18449EC
:10EDA0008B7EFF2B06D00B1C36331B780127FF2BE5
:10EDB00029D100E0002723781C207843022B09D0BA
:10EDC0007B4AFD2310188376211C0722103003F0A4
:10EDD000C3FC03E0764B1818FE23837603AB1F7049
:10EDE0000399CBB2AB70E3720BE0734816230E228B
:10EDF000083000213B7003F0D1FC019A44231343F7
:10EE0000A372002400E06D4C0021674B0B91DB7A6C
:10EE10001C225343664A0D91D3180C93654B614AEB
:10EE2000089309910A91B088043208ABFFF779FB87
:10EE3000002800D0E5E0221C7EE05A4901224B7AEE
:10EE40009343019A4B7204239A431423A2723B709A
:10EE5000B379002B04D0E07AFFF774FDB2796BE050
:10EE6000F379590767D5AB78FF2B64D008210A43A3
:10EE7000F17AA2728907C90F012906D11C225A43CF
:10EE80004B488218907E88439076E27AFF2A52D0CF
:10EE90002178474A1C2602290CD05E439619301C63
:10EEA00007221030211C03F057FCB37E022293434B
:10EEB000B37609E073433F49D318498A1A1C198372
:10EEC0009B7E01218B439376281C0121FFF7A2FB37
:10EED00031E0B379112B15D1019A120712D53648BA
:10EEE00000210E22083003F059FC162301993B70D3
:10EEF00060230B432B4AA372537A2A4902221343FD
:10EF00004B7218E0019A80235B421343A3721523CE
:10EF10003B70244B281C9A7A294B9200D35898476F
:10EF200009E02049264B8A7A281C9200D35898473A
:10EF300067E013233B7000221A4905AC0B68281CBC
:10EF4000211C98472378122B5BD11748837A012B19
:10EF500057D0012383725B420381C37200210722D1
:10EF600003F01CFC4DE0E27AAA7000226A70B4E65D
:10EF700011233B706A708388871D23810223A3724B
:10EF8000201C391C072203F0E7FB737DDA071BD531
:10EF90000C4A5B08D35CFF2B29D0039327E0C046C3
:10EFA000082C0020842C00200A2C0020FFFF0000E9
:10EFB000182C0020502C00206C2C002043800000D6
:10EFC000403E0200062C00200F4E391C301C103031
:10EFD000072203F0B2FB002808D0301C2C30391C6B
:10EFE000072203F0AAFB0028A5D101200390039A71
:10EFF000281CD3B20A22E372A272AB70FFF71EFE86
:10F0000099E70FB0F0BDC046182C002030B500299C
:10F0100012D00A78002A11D10A4B1B68002B0DD0A0
:10F02000FF23094C8B7025890523854207D14A703F
:10F03000E37A8B70131C02E0044B00E0044B181CB5
:10F0400030BDC046842C00200A2C00200E80000019
:10F05000088000004DDF704730B500238DB00D1CD7
:10F06000141CC21AD27B69465A540133102BF8D1B2
:10F07000002104A80D2203F091FB2B786A46D37778
:10F080006B7868469377AB785377FFF7E3FF6B466F
:10F090002F331B7823706B462E331B7863706B46BF
:10F0A0002D331B78A3700DB030BD30B50378041C30
:10F0B00085B00D1C0020022B16D1611C032201A873
:10F0C00003F04AFB211D032203A803F045FB281C83
:10F0D00003A902AAFFF7C0FF01A802A9032203F0B7
:10F0E0002CFB43425841C0B205B030BD08B5064BB9
:10F0F000586980235B05421C04D0196989B203F06A
:10F10000B1FF00E0586908BD0010001029DF70470A
:10F1100028DF704708B5034B1A78034B9200D35889
:10F12000984708BDE42C0020703E020037B50B1C48
:10F13000074C89680C254D4324681978021C181C5B
:10F140001B690094034C08302C59A04737BDC046BA
:10F15000EC2C0020D02C002008B5104A1421137884
:10F160004B43D318802218695205116904335A8819
:10F1700001389B888018C01889B203F073FF084AD1
:10F18000031C126801209A4207D300209A4204D13E
:10F19000044B186843425841C0B208BD9C2C002063
:10F1A000C82C0020CC2C002008B5044B082219687C
:10F1B00091431960FFF7AEFF08BDC046E02C002068
:10F1C000094A08B5136819070AD4990702D501211D
:10F1D0000B431360054B02221A70FFF79BFF01E0FF
:10F1E000FFF7E2FF08BDC046E02C0020E42C002021
:10F1F00008B5064B1B681A0705D4054B01221A7087
:10F20000FFF788FF01E0FFF7CFFF08BDE02C0020EB
:10F21000E42C002008B5002814D0112805D10A4B91
:10F22000082219680A431A600CE0084B14211A7866
:10F2300051435B18191DFFF779FF054B04221A7023
:10F2400000F096F808BDC046E02C00209C2C002061
:10F25000F02C002008B5FFF759FFFFF7DBFF08BDD2
:10F26000F8B5134B14241A78802554436D051C19E6
:10F2700004342F696288BFB2A088E36821690D4E0B
:10F28000BA420DD92C69C018A4B2121B2C6980187F
:10F290008918A2B29208FFF7DDFF2B699BB204E048
:10F2A000C0189208FFF7D6FF63883360F8BDC046E8
:10F2B0009C2C0020FC2C002038B50A4A80246405D0
:10F2C000236915689BB2013D5D43FFF70FFF21697C
:10F2D000054B013889B241431A68281CFFF7BAFF71
:10F2E00038BDC046C82C0020F82C002070B5104A4C
:10F2F0001421137880254B43D3181A89DC880433F2
:10F30000DB686D05A4182969E418201C89B203F094
:10F31000EDFE0E1CFFF7EAFE2969013889B2414370
:10F32000044B89191A68201CFFF794FF70BDC04672
:10F330009C2C0020CC2C002010B5FFF7D7FE80239A
:10F340005B051C6919691A69431EA0B25843044B36
:10F3500089B21B6892B259439208FFF77BFF10BD38
:10F36000C82C002008B5FFF7D3FEFFF753FF08BDF8
:10F37000F0B52B4B85B0187803284FD803F068FE02
:10F38000020E114A274A00231360274A1360274BB5
:10F390005B78002B42D000F0DFF83FE0FFF760FF22
:10F3A0003CE0234C01232268142601929A431F4B10
:10F3B000226002921A78802756437F059E1933698E
:10F3C0003969181C89B2039303F04CFE194B051CD4
:10F3D000186003983969F3880138C01889B203F0BE
:10F3E00041FE854203D1029A0223134303E0019AAE
:10F3F00003239A43131C23600F4B1A680F4B002AF8
:10F4000003D121680222114200D000221A70FFF7B6
:10F4100081FE03E0074B1868FFF7A4FF05B0F0BDBD
:10F42000F02C0020F42C0020FC2C00209C2C002030
:10F43000E02C0020C82C0020F82C0020E42C002018
:10F44000F0B53F4A1421137885B04B43D318D868E0
:10F450000C22424302903B4880258218548910892F
:10F46000526860436D05821829690192DA881E6925
:10F4700003921F89344CD3199B19009300232360F6
:10F4800089B2301C03F032FE00290AD12B6903989F
:10F490009BB2984208D00099019A914201D1002F65
:10F4A00002D0029B022B08D12969301C89B203F0DB
:10F4B000D9FD264B186003233CE02969B81989B2AD
:10F4C00003F014FE224B89081960009A019B8024E6
:10F4D000640529699A422CD089B2101C03F006FEFB
:10F4E000002926D0019A0098216985B289B290B28C
:10F4F00003F0B8FD2769061CB9B2281C03F0B2FD61
:10F50000B6B280B2864208D1019B00989AB283B20B
:10F51000D31A0D499B080B600BE023692169281C55
:10F5200089B29CB203F0E2FD89B2641A064AA408CB
:10F530001460022307480370FFF71AFF05B0F0BDFF
:10F540009C2C0020D02C0020CC2C0020C82C00208B
:10F55000F82C0020F02C002008B50B4A1421137859
:10F560004B43D318D988094A1B791160032B08D063
:10F57000042B06D0012B06D1054A1370FFF7F8FEC5
:10F5800001E0FFF75DFF08BD9C2C0020EC2C002063
:10F59000F02C0020F7B508AC2488114D01946E784A
:10F5A0000424022E19D02C78A419012C00D9023C75
:10F5B00014277C432C196261221C20710C3281C9F2
:10F5C00081C2E380074B01981B782081013600241B
:10F5D0006E70A34201D1FFF7BFFF201CFEBDC046E5
:10F5E0009C2C0020F02C002038B5124C14252178DA
:10F5F0000020694361180431FFF798FD21782A1C27
:10F600004A430023A21801251371D380D5601361EA
:10F61000536113816278013A62704A19D2B2022AA8
:10F6200001D0227000E02370034A1370FFF7A0FEA0
:10F6300038BDC0469C2C0020F02C002008B5084B9B
:10F6400014211A784A439B181B79042B02D0FFF728
:10F65000CBFF04E0034B01221A70FFF789FE08BDBF
:10F660009C2C0020F02C0020F8B51F4D08242E689B
:10F67000344023D11D4A142113781D4F4B433F685A
:10F68000D31880211869DA88490504339B880969F1
:10F69000002F16D001388018C01889B203F0E2FCA0
:10F6A000144B1B6883420CD1134B1C6001231E4377
:10F6B000124B2E601C70FFF72DFD13E0FFF774FD59
:10F6C00010E0FFF749FD002804D00B4B00221A6020
:10F6D000022202E0002F03D00322084B1A70EAE74F
:10F6E000FFF7ACFFF8BDC046E02C00209C2C0020AA
:10F6F000CC2C0020C82C0020F82C0020E42C00206A
:10F7000008B5054B1B681A0702D4FFF797FF01E005
:10F71000FFF74AFD08BDC046E02C002038B5154D66
:10F720002C68220723D4144B1A6801321A60134B39
:10F7300004221B68002B04D1FFF70EFD002802D025
:10F7400002220F4B0CE00F4B1B68002B0CD0012149
:10F75000221C0A400A4B02D10C432C6000E0032219
:10F760001A70FFF7D7FC04E0FFF768FF01E0FFF72E
:10F770001BFD38BDE02C0020C82C0020F82C0020F8
:10F78000E42C0020CC2C002008B51E4B1B78022B4B
:10F7900030D0032B19D0012B32D11B4B08211A6812
:10F7A0000A4222D1194B14211A784A439A18184B4D
:10F7B000D1881B68CB1A9BB2D380002B02D1FFF7F4
:10F7C00013FF1DE0FFF74CFD1AE00F4B08211A68EC
:10F7D0000A420AD10F4B1A6801321A60FFF7BCFCCB
:10F7E000002804D1FFF72AFF0AE08A431A60FFF7D6
:10F7F000BFFD05E0084B1A78084B9200D358984794
:10F8000008BDC046F02C0020E02C00209C2C0020DD
:10F81000FC2C0020C82C0020E42C0020843E020098
:10F8200008B5024B1868FFF79DFD08BDC82C0020E5
:10F8300008B5FFF75BFC80235B051A691969431E55
:10F8400090B2584389B203F00DFCFFF78BFD08BD61
:10F8500038B5144C042523781A1CAA4321D0022859
:10F860001DD003281DD1104A1268110717D40F4963
:10F870000A6801320A60032A04D0022B0CD1FFF778
:10F8800049FC0EE00A4B14211A780D2051435B18F5
:10F89000191DFFF74BFC2570FFF76AFD01E0FFF72C
:10F8A00073FF38BDF02C0020E02C0020F42C002049
:10F8B0009C2C0020174B10B5012200241C705C709A
:10F8C0001C71DC80DA601C615C611C811C765C83CD
:10F8D0001A625C629C629C830F4B1C80FFF706FCE3
:10F8E00080235B051A69831E90B258430B4B042298
:10F8F00018600B4B201C1C600A4B1C601C815C8137
:10F90000094B1C70094B1C60094B1C60094B1A60A9
:10F9100010BDC0469C2C0020DC2C0020E82C0020D0
:10F92000C82C0020D02C0020F02C0020F42C00202B
:10F93000FC2C0020E02C00202B4BF7B51B680E1C84
:10F940000421041C08200B424DD0002C4AD0002E6C
:10F9500048D02268002A45D080277F053A69A388CD
:10F9600092B2934201D907203DE00F2BFBD9E288E8
:10F97000002AF8D053431D490D685B190193FFF726
:10F98000B5FB3A69431E90B25843019A8242EAD8C5
:10F99000A3889907E7D1164A04201788012F22D09F
:10F9A0000C20784313493760756026680A18556043
:10F9B00046501381E0880137508180225205584318
:10F9C000166911691469B2B28018013889B203F05E
:10F9D00097FBA4B24443054E054B651935601F8063
:10F9E000002000E00E20FEBDE02C0020E82C0020CE
:10F9F000DC2C0020D02C0020114B30B51C680823D3
:10FA000065071AD5002815D0002A13D00368002BEB
:10FA100012D10C4C2568002D0ED025894068694311
:10FA200009186089454360682D18A94204D2136003
:10FA3000516002E00E2300E00723181C30BDC046D1
:10FA4000E02C0020D02C0020F0B5141C1C4A051C12
:10FA5000126885B00F1C082051072ED5002F2BD01F
:10FA6000002D29D02A680720002A26D1154E31689A
:10FA7000002922D06A6803923289718976685143DD
:10FA80008C4603996644B14217D2002C15D094429B
:10FA900013D8E618964210DC0322102017420CD12E
:10FAA00013420AD1114208D10093291C3A1C231C8D
:10FAB0000120FFF76FFD00E00E2005B0F0BDC0464D
:10FAC000E02C0020D02C0020F0B5141C1C4A051C92
:10FAD000126885B00F1C082051072ED5002F2BD09F
:10FAE000002D29D02A680720002A26D1154E31681A
:10FAF000002922D06A68039232897189766851435D
:10FB00008C4603996644B14217D2002C15D094421A
:10FB100013D8E618964210DC0322102017420CD1AD
:10FB200013420AD1114208D10093291C3A1C231C0C
:10FB30000420FFF72FFD00E00E2005B0F0BDC04609
:10FB4000E02C0020D02C0020F0B5161C214A85B0F6
:10FB5000126802900D1C0824500738D5002931D0B6
:10FB6000029900292ED02C68002C2DD11A4F3A680A
:10FB7000002A29D0398978896A6848438446786898
:10FB80008444624520D2002E1ED08E421CD8F0182C
:10FB9000884219DC02980321084217D10B4215D183
:10FBA0001140039112D19918321C02F0D5FD296839
:10FBB0000C234B430096FE58281C0221039A029BFB
:10FBC000B04704E00E2402E0072400E01024201CCB
:10FBD00005B0F0BDE02C0020D02C0020F0B5204B6B
:10FBE00085B01B68061C0D1C08245A0734D5002854
:10FBF00031D003680724002B2ED11A4B1A68002A33
:10FC00002AD01A894768029258685B8953431B18A7
:10FC100003939F4220D21024BB071DD1381A111C18
:10FC200003F064FA0724002916D1281C029903F076
:10FC30005DFA89B200290FD1002D0DD0039AEB197E
:10FC4000934209D8002200920320311C2B1CFFF79D
:10FC5000A1FC041C00E00E24201C05B0F0BDC04631
:10FC6000E02C0020D02C00202EDF704751DF7047A1
:10FC700010DF704711DF704761DF704708B5081C5F
:10FC8000111CFEF7A1F808BDF0B5254B85B01B7817
:10FC9000002B42D0234E244F3268544254413A68DC
:10FCA000E4B255425541EDB2002C34D103A8FFF720
:10FCB000DDFF05280AD0002804D0211C221CFEF7F5
:10FCC00085F804E003983368984700E00124002D8C
:10FCD0001ED1164B03A91B880B80154B1B68181CE3
:10FCE0000193FFF7C9FF051E052D0BD0002805D095
:10FCF00000210A1CFEF76AF8002504E001983A6822
:10FD0000904700E00125002CCED0002DCCD004E09F
:10FD1000002C02D1C8E7002DDBD005B0F0BDC046F5
:10FD2000002D0020082D00200C2D0020022D002089
:10FD3000042D002038B5041C0720002913D08D079E
:10FD400011D1094801600949201C0A80084A094963
:10FD50001360FFF78DFF002805D1074B0122162005
:10FD60001A70FFF781FF38BD042D0020022D0020FE
:10FD7000102D00207DFC0100002D002008B5FFF7AC
:10FD800079FF021C531E9A41014BD2B21A7008BD72
:10FD9000002D0020002803D0024B1860002000E056
:10FDA0000E2070470C2D0020002803D0024B186055
:10FDB000002000E00E207047082D002008B5074BFA
:10FDC0001B68002B07D09847002806D000210A1C8A
:10FDD000FDF7FCFF01E0FFF757FF08BD102D0020E5
:10FDE00038B50023C356041C0D1C013304D106484A
:10FDF0000649242202F072FB6368002D01D0E268FC
:10FE000000E02269136038BD983E0200B03E020057
:10FE100000B599B068460F2100F065F806A80F21DB
:10FE200000F061F80CA80F2100F05DF812A80F2176
:10FE300000F059F868460121FFF7D2FF06A800211B
:10FE4000FFF7CEFF0CA80021FFF7CAFF12A801217F
:10FE5000FFF7C6FF962000F0CCF868460021FFF7B8
:10FE6000BFFF06A80121FFF7BBFF0CA80121FFF788
:10FE7000B7FF12A80021FFF7B3FF962000F0B9F8F2
:10FE8000D8E70FB4012008B502F0FCFB38B5002319
:10FE9000C356041C0D1C013304D106480649242214
:10FEA00002F01CFB6368002D01D0E26800E02269CB
:10FEB000136038BD983E0200B03E020070B50D1CC4
:10FEC000041C161C00F09CF801350BD0201C311CC2
:10FED000FFF7DCFF201C012100F0B0F8201C0021FE
:10FEE00000F0A6F870BD08B50022FFF7E7FF08BDD7
:10FEF00038B50368041C1B680D1C984763681D60B7
:10FF000038BD38B50368041CDB68984763685A68D5
:10FF10002368002A02D19B68984714E05B68156843
:10FF2000984763682D1A002D08DC5A68916859605B
:10FF30001B68002BEAD050689847E7E75B682268A7
:10FF400018681369984738BDF8B50D1C72B64B6038
:10FF50000A60416800234C68002C05D02768D61B36
:10FF600002D4231CA468F7E7002B05D103684D6079
:10FF70001B69101C984700E09D60AC6062B6F8BD3C
:10FF800008B572B6426853688B420FD19B685360C4
:10FF90000268002B02D1936898470CE01868136937
:10FFA000984708E09A688A4203D0131C002BF9D1C5
:10FFB00001E08968996062B608BD08B503685B68AE
:10FFC000984708BD004870476C3F020008B50248DA
:10FFD000FFF797FF08BDC0466C3F020038B5041C10
:10FFE00000F082FA051C00F07FFA401BA042FAD311
:10FFF00038BD08B5FA239B005843FFF7EFFF08BD53
:020000022000DC
:1000000001704B1C0AD001238B404360044BC3603A
:10001000044B0361044B4361044B83607047C0464B
:10002000080500500C050050100500501405005044
:1000300008B5007840B200F01FF808BD38B50023BD
:10004000C356051C0C1C013304D1094809492A2256
:1000500002F044FA002C01D0012C07D10022AA564C
:10006000A023C132FF329200DB05D45038BDC04618
:10007000983E0200743F020038B5041C0D1C431C5E
:1000800004D10A480A491A2202F028FAA023A00043
:10009000DB05C018E023DB00C2580C218A43C250A4
:1000A000C258AD001543C55038BDC0469D3E020044
:1000B00016400200962210B50123D200914203DCC3
:1000C0009E210268C90212E00A4ADC00A458A1423B
:1000D00007DA013BDB00D21801685268064BCA50B0
:1000E00007E00133112BEFD1802102684905024B53
:1000F000D15010BDB840020024050000F8B5314BC6
:10010000161C0360304AA023DB05051C0F1C0120D0
:100110009958B840014399509C58802149000C439C
:100120009C502A4C1A59104318511A59281C114333
:1001300019511A590121B1408A431A511959244AB7
:100140000A4096211A518901FFF7B4FF2B68214913
:1001500000205850A0210420C90058500121996066
:100160001960191CFC3100220120CA6042421A4861
:100170001A501A4800220A621A5017480A6A012ABD
:10018000FCD10021A1226960D20008219950A2224D
:100190000A21D2001F5099501E517A1C03D0381CDE
:1001A0000321FFF769FF731C03D0301C0321FFF705
:1001B00063FF0B4B01221A60291C0822094802F038
:1001C000CBFAF8BD00200040040500001405000033
:1001D000FFFBFFFF6C0500000C0500001C05000084
:1001E0001C2D0020282D0020124AC1239B00D1582D
:1001F00010B5080603D51049096A002911D1D35852
:100200005A0716D50C4BDA68002A12D00024DC609D
:10021000084AA323DB00D058C0B2FCF767FC211CBE
:1002200000E00121054B1868002802D0044B1B6830
:10023000984710BD00200040FC200040242D0020E5
:10024000202D0020034B19604168034B8900CA50E0
:100250007047C046202D0020242D002030B50368B3
:100260001E4C1819444260414000002A1BD000294E
:1002700003D0012905D1802100E00421C122920090
:100280009950174BC022920040B29C58C100FF25E4
:100290008D40AC43C0258D40291C2143995001223B
:1002A00082401A6018E0002908D0012914D1C22226
:1002B000920080249C509B589B0806E0C22292002A
:1002C000042199509B580121DB09994304D0012353
:1002D0008340181C034BD86730BDC04600E0FFBF09
:1002E00000E100E004E100E003681A1CFC32106A3F
:1002F0000128FAD100201062014AC9B29950704712
:100300001C0500000368FC33186A01384342584159
:1003100070470000F7B50E1C01930223041C0D1C4E
:10032000171C9E43012E13D11F4BA022D205D1587A
:10033000301CB8400143D150381C0321FFF79CFE0C
:100340002368A122D2009F50184A99580E439E500C
:10035000AB1E012B16D8144BA022019ED2050125FD
:10036000D158281CB0408143D150301C0321FFF7E5
:1003700083FE2368A222D2009E500C4A99580D4356
:100380009D500FE0002D0DD123680122A121524282
:10039000C9005A50A221C9005A50044A0120995854
:1003A00081439950F7BDC046140500006C0500005C
:1003B0000A490B4A88680B4B002808D0186801309E
:1003C0001860002088600220D221814050500649E8
:1003D0001B6852581806190A10437047FC10014058
:1003E00000100140342D0020040500002F23C046DA
:1003F000C046C046C046C046C046C046C046C046CD
:10040000C046C046C046C046C046013B002BEED1A8
:1004100070470000F8B5184B9A68002A0AD0174AAE
:10042000022011680131116000229A601449D22221
:10043000824088505B6C124C002B1CD00E4B8025E8
:10044000D222920000266D025E64A5500D4A1378F8
:10045000B34210D00C4B1F68FFF7AAFF3F1AB742F8
:1004600009DC084BD2221E70C2239B009200E5508B
:10047000A550FFF7ABFDF8BDFC100140342D002066
:1004800000100140392D0020302D002038B5124CCD
:100490002278002A1FD1114BA121C9005A500222F3
:1004A000D22191405A50C12191405A500C4AC42146
:1004B000890055580B482840C0252D02284350502C
:1004C0008021C020890240000125115011601D606B
:1004D000FFF78CFF257038BD382D0020001001403B
:1004E00000E100E0FF00FFFF08B50B4B1B78002B7D
:1004F00001D1FFF7CBFFFFF75BFF064B044A02F089
:1005000081FE4904C00B084308BDC046C046C04632
:1005100040420F0000000000382D0020C046C046B9
:100520002F4B70B51B78061C002B01D1FFF7AEFFD7
:10053000FFF73EFF254B244A02F064FE4B04C00B3C
:10054000002400251843CD0B0023321CA4185D4164
:1005500080231B06984205D9002E03DB1C4A1D4B45
:10056000A4185D41610CEB030B43E2031A481B49DD
:1005700080185941154B144A02F024FE194D041CF1
:100580002B78194E002B02D0336898421BD0FFF70E
:100590000FFF201A022802DCFFF70AFF841C210249
:1005A000124BA822D200090A99502A783460002AF6
:1005B00009D101222A70D2218022520289005A5088
:1005C000C12189005A5070BD40420F000000000058
:1005D00000000000010000003F420F00000000008A
:1005E000382D0020392D0020302D00200010014032
:1005F000074B1A78002A0AD0064A8021C2204902F5
:1006000080001150D2208000115000221A707047D3
:10061000392D002000100140024B00229A605A64DC
:100620007047C046FC10014008B5FBF751FFFCF7CE
:100630001BF8FCE7FF23182801D8024B1B5C58B2BB
:100640007047C0464841020010B50021041C4022FA
:1006500002F0A4F8221C40320023201C13705370B7
:1006600010BD0000F7B5FA260093B60008AB041CD5
:100670001B78301C48431449171C019302F0F2FC0C
:1006800085B2301C258078430F4902F0EBFC009BBB
:1006900080B2A380019B6080A371032D01D8042345
:1006A000238022888023DB019A4200D923800328FB
:1006B00001D80422628062889A4202D98023DB0139
:1006C0006380201CFEBDC0467102000093DF7047AE
:1006D00008B50368002B01D0081C984708BD08B571
:1006E0000368002B01D0081C984708BD10B50B7893
:1006F000041C03704B8A102243820131013002F046
:100700002BF8201C10BD38B502680B68051C0C1CAA
:100710009A4201D000202CE00379002B07D10B79FD
:10072000002BF7D1C28ACB8A9A42F3D10BE0012B7E
:10073000F0D10B79012BEDD105300531102201F0FC
:10074000FCFF0028E6D12A7E217E7F231A400B4041
:100750009A42DFD16A8B638B9A42DBD1EA69E36903
:1007600000209A4205D1238C288CC01A434258415C
:10077000C0B238BD70B5051C0E1C00242819311CF0
:10078000FFF7C1FF002803D14C34E42CF6D100E080
:10079000012070BD07B501AB1980191C5A80FFF705
:1007A00095FF10280CD003D8002398420BD009E005
:1007B0000523112807D0054A0423904203D001E005
:1007C000032300E00B23181C0EBDC04602300000BE
:1007D00070B50025041C291C20C0FCF785FE0C26E2
:1007E000201C291C321C25766583A583E58325847E
:1007F000243001F0D3FF074B201C65632363291CC1
:10080000321C383001F0CAFF034BA564201C63641E
:1008100070BDC046D1060200DF06020010B5041C00
:10082000FFF7D6FF201C4C30FFF7D2FF201C98307A
:10083000FFF7CEFF201C10BDF8B50D1C1E1C08C90B
:10084000041C08C0171CFFF751FF2B7E3A1C2376AF
:100850006B8B6383AB8BA383EB8BE3832B8C238426
:10086000231C243323CA23C3FF6800222763626347
:10087000311C0833A1C9A1C3F668201C6664A264B8
:10088000F8BD70B50E1C8AB00168041C038C019081
:10089000684603AD03911230111CAB80FFF726FFB1
:1008A000201C6E8302952430236B01A998470AB05F
:1008B00070BD07B5031C6A460090117138305B6C3F
:1008C0006946984707BDF0B5A7B00B790C1C0868BE
:1008D00069460B71E38A00906846161CCB82102291
:1008E000611D053001F038FF237E6D462B76638B4A
:1008F000221C6B83A38B2432AB83E38BEB83238C8F
:100900002B8409ABA1CAA1C3216B00250C910D95C5
:100910000EAB083283CA83C3626C13A8119212957E
:10092000FFF756FF13A9201C222201F015FF231CFC
:100930001CAA243383CA83C31F9A656322630833C6
:1009400021AA83CA83C3249AA56462646846311CC1
:10095000FFF7AFFF27B0F0BD30B595B0041C01A87C
:10096000FFF736FF201C01A9FFF7CDFE0025A842A6
:1009700018D00D9A236B9A4214D1211C0AA8243155
:100980000C2201F0DAFEA8420CD1129B626C934259
:1009900008D1211C38310FA80C2201F0CEFE4542AF
:1009A0004541EDB2281C15B030BDF8B5061C0F1C32
:1009B00000257419201C391CFFF7A5FE002804D05F
:1009C000201CFFF7C9FF002803D04C35E42DF0D1DF
:1009D0000024201CF8BD10B5041CFFF7E6FF011E23
:1009E00003D0201C0022FFF76EFF10BDF8B50F1CCE
:1009F000041C0325238C261CBB4204D1201CFFF7BA
:100A0000ABFF002804D0013D4C34002DF2D12E1C48
:100A1000301CF8BD38B5041C151CFFF7E7FF011E9C
:100A200003D0201C2A1CFFF74EFF38BD08B5FFF786
:100A3000DDFF431E9841C0B208BDF0B589B0061C69
:100A40000091171CFFF7D2FF041E2AD000253A8818
:100A5000062395420FD26B43FB185A88998803A846
:100A600001920135FCF740FD201C019903AAFFF714
:100A700008FFADB2EBE7013A5343FF187988E28BE8
:100A8000013189B2914203D9301C211C002206E0B9
:100A90000098FFF77FFE021E03D0301C211CFFF7D9
:100AA00012FF09B0F0BD70B5061C00243519281CD2
:100AB000FFF752FF002803D14C34E42CF6D1051C7B
:100AC000281C70BDF0B51E1C4B8B041C0233C88B58
:100AD00099B09BB20D1C03920F8C01930290984227
:100AE00007D2002705910697F368301C05A998479F
:100AF0002DE0201C391CFFF799FF002801D00527A5
:100B000025E0201CFFF7CFFF041EF8D0381C019908
:100B1000029AFFF73FFE071E19D1291C331C039AC6
:100B200005A8FFF789FE05A92222201C01F014FE6A
:100B3000231C24330EAA23CA23C31199083321632B
:100B4000676313AA23CA23C3169AA7646264381C76
:100B500019B0F0BD70DF704771DF704772DF70470A
:100B600073DF704774DF704775DF704776DF70475B
:100B700077DF704778DF704779DF70477ADF70473B
:100B80007BDF70477CDF70477DDF704786DF704713
:100B900087DF704788DF70471420704764207047F4
:100BA000A0208001704708B5FFF7F2FF421E904178
:100BB000404205230340181C08BD10B5041CFFF774
:100BC000D1FF021C0320002A06D1201C58300378D4
:100BD00001218B430370101C10BD08B53B239A42C2
:100BE00000D01323081C191CFFF7C0FF002800D0F9
:100BF000032008BD08B50A1C0368011CFE31C98C1E
:100C00001B6A984708BD08B5081CFFF7B9FF002804
:100C100000D0032008BD08B5081CFFF7AFFF00286F
:100C200000D0032008BD08B5081C111CFFF79CFF6D
:100C3000421E9041404203230340181C08BD13B5D7
:100C40000C1E012C07D86846111C0130062201F049
:100C500083FD002005E08B1E012B01D9032007E056
:100C600001206B4669461C70FFF774FF0028F5D120
:100C700016BD37B568460D1C141CFFF76DFF032326
:100C800000280FD1002D02D06A4613782B70002C5B
:100C900007D06946201C0131062201F05DFD0023CA
:100CA00000E0231C181C3EBD08B5081C111CFFF7F2
:100CB0006BFF421E9041404203230340181C08BDB5
:100CC00008B5081CFFF756FF421E9041404203231F
:100CD0000340181C08BD08B5081CFFF74DFF421E55
:100CE0009041404203230340181C08BD08B5081C6E
:100CF000FFF73EFF0023984203D00523112800D0C0
:100D00000323181C08BD0000024B0B60092313606D
:100D10007047C0466141020008207047B83001703A
:100D200000207047B93001700020704702207047E2
:100D3000B83000787047B9300078704700207047AD
:100D400008B5031C1A1CF3326C3011789B6F98475E
:100D500008BD10B518C96210E10701D58158CB58FC
:100D60008018984710BD0000012008B5054A011CF5
:100D700001F098FB421E904140420B230340181C97
:100D800008BDC046C10D020070B5061C0D1C002434
:100D9000331CBA331B78A3420ED96B79A3420BD90B
:100DA0000722111C61432B68013458187118BB319C
:100DB00001F0D2FCE4B2EBE72C71002070BD000022
:100DC00010B5041C0020FCF749FC03681B69984718
:100DD000031CF3331C7086235B00C050074A031CBE
:100DE000FC335A6186220021520099618318044A1B
:100DF000F4305A61FDF70BFB10BDC046410D0200F7
:100E0000530D020037B5112301AD081C2B700C1CCB
:100E100001F0F8FD211C82B2281CFFF7B3FE421E30
:100E20009041404203230340181C3EBDF8B50368BF
:100E3000061CDB6C0C1C0D7998470323854226D8D1
:100E400022790023D9B2914208D207215943206860
:100E50000133095C0329F5D1042318E0371CBA37A4
:100E600000253D702379AB4210D9387807225043D2
:100E7000111C6943236830185918BB3001F06CFC11
:100E80003B78013501333B70EDB2EBE70023181CD2
:100E9000F8BD10B50C1CC97F01201F290DD80029F1
:100EA0000AD0D37F201CFFF759FE002804D1208CE4
:100EB000FFF760FE002800D0032010BD10B5041C11
:100EC000FCF79EFA00280AD1231C0122FE3352426D
:100ED000DA84BA34463B18705870207000E006205F
:100EE00010BDFE30C1847047FE30C08C70470000DA
:100EF000F0B593B0039000200C1CFCF7AFFB036827
:100F00005B6A9847FDF76EF906AB00280DD000220A
:100F10001A7105AA069208221A73181C0AAA9A6066
:100F2000FDF72CFA002802D04FE018711873002347
:100F3000237323711F1C039BBA331B78BB4243D915
:100F400007237B4303990025CA18B832D278022AB6
:100F50002DD106AE337BAB4233D907207843039BB8
:100F6000AA001818B368BB3099580292FDF71EFA10
:100F7000002819D0B168029BCA58237BA1689B0046
:100F80005A50237B327B01332373531E9D4206D07C
:100F90000F49B36852189200D25802995A5006ABC2
:100FA0001A7B013A1A730CE00135EDB2D1E70399CF
:100FB0002279CB182168BB33920053502379013337
:100FC00023717B1CDFB2B6E7002013B0F0BDC04632
:100FD000FFFFFF3F70B50B78021C9AB00D1C02207A
:100FE000012B3BD04988032B04D1A039181C89B2AE
:100FF0001B4B03E020391B4B89B2032099422DD8AB
:10100000A988194B0320994228D80AAB009312AB48
:10101000029369460023161C0B710B73B8363378A4
:10102000002B05D0101C6946FFF762FF002815D180
:1010300004AC0021201C182201F0B0FB2B7800A981
:1010400023703378201C23726B88E1602382AB8885
:101050006382FFF785FD002800D003201AB070BD21
:10106000603F0000E03F0000FF3F000070B598B017
:1010700008AB009310AB02936A460023051C137162
:101080001373B9352B780C1C002B1FD104A82A78B8
:101090000678A179012319409E4313405A00331C5E
:1010A0000B4302218B431343037000AB436023883F
:1010B000038163884381A3888381FFF767FD031C55
:1010C0005A1E934103205B42184004E06946FFF733
:1010D0000FFF0028DAD018B070BD0000F0B59DB049
:1010E000051C1F1C68466B461A7001300622229EA2
:1010F00002AC01F031FB002F07D03B8823807B88B6
:101100006380BB88A380FB8806E0322323806423AE
:1011100063809623A7809B00E3800CAB04A9049313
:1011200014AB8B602F1C00230B710B73B9373B780A
:10113000002B17D1387808A901230A780227184014
:10114000BA43984004AF4F600243002E10D0B079EC
:101150009A431840338802430B8173880A704B818D
:10116000B38811E0281CFFF7C3FE0028E2D02AE074
:10117000281C323000789A431840AB8D02430B8113
:10118000EB8D0A704B812B8E6846221C8B81FFF7FA
:1011900001FD031C0020834215D0082B12D005D876
:1011A0000720042B0FD083420AD107E00520112B22
:1011B00009D0064A934201D0102B01D1042002E04D
:1011C0000B2000E006201DB0F0BDC046023200003A
:1011D00090DF704795DF704797DF70479330007856
:1011E000431E9841C0B2704708B5081C111C1A1C58
:1011F000FFF7F0FF031C0020834204D0113B58424C
:1012000043410620C01A08BD30B585B001AC6380EB
:10121000089B0025E380099B2170101C211C657030
:10122000A5800393FFF7D8FFA84208D0112805D066
:10123000044BC51868424541063500E00525281CC9
:1012400005B030BDFCCFFFFF08B5ED30FF30FFF734
:1012500039FC08BD08B5ED30FF30FFF78BFA08BD4B
:1012600008B5ED30FF30FFF7B6FB08BDF0B587B02D
:1012700001AB1A1C0C1CE0CCE0C2DA246400021999
:10128000C968E0CBE0C200190023C160036107B068
:10129000F0BD0000F0B5051C91B006AE34350195E7
:1012A00000910396041C311C101CE0C8E0C10BAD7A
:1012B0000295D768191C2A1C61C961C2DB680198B4
:1012C0000593636B5B689847051C0620002D3AD197
:1012D000039A231C503343CA43C3029AE765256629
:1012E0001C33C1CAC1C3059E201C1E6004331D608F
:1012F000169914223A3001F02FFA201C1799142263
:10130000643001F029FA009F231C91332787013BA9
:101310005D700121381C1D70D9702A1CFFF758FF21
:10132000071C281C002F0ED0636B01989B68984700
:10133000112F07D0054B9F4202D00620072F02D164
:10134000042000E0052011B0F0BDC04602300000CE
:1013500070B5041CC06A86B02063206B00280BD0D7
:10136000C368211C9847236B002B02D1E16A2163DB
:10137000F3E71B692363F0E7E06A002804D00569FE
:1013800001F04AF9281CF8E7E062A068002804D0C0
:10139000056901F041F9281CF8E7A06060690028A0
:1013A00004D0056901F038F9281CF8E7256A606166
:1013B000002D05D02E69281C01F02EF9351CF7E709
:1013C000201C25623430FCF79DF8002829D1231C0D
:1013D00090331D705D709D70DD70C2235B00E55021
:1013E000E21801235B4253609360D3601361CE2205
:1013F0005200A550CE225200A21801AE5360936055
:10140000D3601361301C291C0C2201F0C7F9DA22C9
:101410005200A31807CE07C3B534034BFF34E36073
:101420002561002006B070BDC9CD010008B534307B
:10143000FCF7DEF808BDA0DF7047A4DF7047A5DF2A
:101440007047A6DF7047A8DF7047A9DF704700002C
:1014500073B5151C02680E1C009394682B1C321C7B
:101460000149A04776BDC046FFFF000037B5069C86
:101470000020009020886D462880081C111C6A46B8
:101480000193FFF7DCFF0323002802D12B88238080
:10149000031C181C3EBD000073B5151C06AA0E1CCB
:1014A000117802680093019114692B1C321C0149C8
:1014B000A04776BDFFFF0000F8B5041C00200E1CFD
:1014C000151CFCF7CBF803681B69984723689F69D4
:1014D000FFF70AFD321C011C2B1C201CB847F8BD6D
:1014E000F0B5D48B42791E1C85B00023934218D2EC
:1014F000DD004519C4352D88A54210D11833DB0015
:10150000C3186C461A890E3402232380036803AD86
:1015100000949F682B1CB847021E04D00DE00133D5
:10152000E4E7042009E023880620022B05D12B885C
:10153000101C9A0701D00123337005B0F0BD0000E4
:1015400070B50D1C86B000210091161C0AA90BAACB
:10155000098812786C4621800193002A01D14179D3
:101560000EE0281C311C6A46FFF767FF00283ED1B9
:101570006CE0D4000419C4342488B44203D001328E
:101580008A42F6D335E01C3292008018426830213E
:101590000132D27F0A422CD002AC10210A40E36013
:1015A0000AAB51424A41A360294B013200202680F8
:1015B000A270A0809D4207D1FCF750F803681B6918
:1015C0009847FFF791FC051C281C211CFFF739FFE9
:1015D00083B2181E3AD0112B37D02EDC082B32D014
:1015E000281C311C6A46FFF728FF00282DD0032055
:1015F0002CE0281C311C6A46FFF71FFF031E0C2B32
:10160000F5D00C280AD80528F1D0072801D10420EC
:101610001CE00020834219D00B2017E01028F6D0E0
:1016200003D808200F2B11D0F6E70A4A9042DED0EB
:10163000D02292019042DAD0EEE7074B984204D0D4
:10164000064B9842CCD1062000E0052006B070BDC4
:10165000FFFF0000023000000330000001340000F2
:10166000F0B5061C99B0081C0F9100F0D7FD6C4630
:101670004634129012A90120221CFFF7DCFE00283C
:1016800001D00320BEE023880F990E908B830F9921
:101690000E9A0B7D93426AD97379132B01D90720D7
:1016A000B0E00F9A0E9992698B009C586269002AEB
:1016B00062D1638B002B5FD1631CDB7F022B5BD17C
:1016C00050E0616AAB005F5813A84F49FBF70CFF6D
:1016D000381C13A9FCF78CFB002803D07A697F8B98
:1016E0000C920D970135EDB2231C28331B78AB42C9
:1016F000E7D86169631CDA7FA31CDB7F0091618BF3
:1017000000200191218B0291217F03910C9904917A
:101710000D990591211C293109780691211C2A3146
:101720000978079171791831C9007118043108914D
:1017300012A900F0C5FD0028A3D173791A1C1C3230
:1017400092001833B218DB005460F3189B880C9099
:10175000E383737901337371231C28331B780C9A4C
:10176000934211D80E9B0133DBB20E938FE733798E
:1017700000200133337145E0201C00F04FFD0025AF
:1017800012900D950C95AFE7C2277F00F35D072BF4
:1017900085D80C9A616A93005D5813A81A49FBF723
:1017A000A3FE281C13A9FCF723FB0D90002824D1CD
:1017B000281C00F033FD298B6A696B8B0091297F0F
:1017C00012900191F15D0D98C031490071180631F8
:1017D000029112A900F021FE002800D051E7F35D2C
:1017E0001A1C58329200C033B2185B005560F318CF
:1017F000DB88EB83F35D0133F3550C9B0133DBB2E4
:101800000C93A9E719B0F0BD0129000038B5051CFB
:10181000FCF72AF9041E1DD1281C211C502274300B
:1018200000F0BCFFB2235B00E818211C202200F06E
:10183000B5FF281C211C0822C43000F0AFFFC323D1
:101840005B00E818211C102200F0A8FFC2235B00F7
:10185000EC5400E00624201C38BD00000B68002B6F
:1018600001D1036002E0024B036000234360704734
:10187000C1CC010038B5041C0D1C6368A360A068CE
:10188000002807D0C368291C9847A368002BF4D010
:101890001B69F3E738BD08B5C368984708BD30B584
:1018A000141C87B004290ED0052917D0032925D18F
:1018B000051C383504A8291CFFF7D0FF049A002A1C
:1018C00018D1059B14E0051C4C356846291CFFF710
:1018D000C5FF009B002B0DD1019B09E0051C603565
:1018E00002A8291CFFF7BAFF029B002B02D1039B21
:1018F000DA0703D5281C211CFFF7CDFF07B030BD48
:10190000F0B50B888FB0051C0C1C512B41D008D8AA
:10191000012B24D0502B00D002E1CE884279002345
:101920000EE0522B2ED0532B00D0F9E0CE880521AB
:101930003AE0D9006918C8310988B14203D00133AF
:101940009342F6D309E01C339B00EB185A68302110
:10195000531CDB7F0B4200D0CCE0022124E0C068A6
:101960000C7A28612869002800D1D9E0C368211CBD
:1019700098472B69002B02D1E9682961F2E71B69BE
:101980002B61EFE7888800210A1C0B1CFFF75DFD27
:10199000C6E08B79012B05D0022B00D0C0E00E8968
:1019A000072101E00E8906216B7900220092009840
:1019B000984200D3B4E00098C200AA18C43212883A
:1019C000B24212D1062957D0072911D0022900D0DE
:1019D0008BE0A3880AA90B804E80237A0B71A38B1E
:1019E000CB80E38B20340B8140E0009A0132DDE7AD
:1019F0000021102202A800F0D1FEA38869460B81C5
:101A00004E81E38B221C8B81238C223206AFCB814B
:101A10000192049200211022381C00F0BFFE022324
:101A20003B70009B1C339B00EB185B681A1C2A322E
:101A300011780022914206D0181C4030DB6C02A9BC
:101A400098476B469A8AA088391CBA80FFF7FBFC3E
:101A5000BB88002B64D1A3880AA90B804E80A37A8F
:101A60000B71E38BCB80238C019C0B81281CCC60F9
:101A70001430FFF7FFFE53E006AF00211022381CA0
:101A800000F08CFEA3887E803B80A38B0AAE0021F1
:101A90001022301CBB8000F081FE01233370009BBC
:101AA0001C339B00ED186B681A1C29321178002238
:101AB000914205D0181C2C309B6B391C9847BA8971
:101AC000B280BB89002B0BD1BB68002B08D0B27948
